{
  "_format": "hh-sol-artifact-1",
  "contractName": "GameEscrow",
  "sourceName": "contracts/GameEscrow.sol",
  "abi": [
    {
      "inputs": [],
      "stateMutability": "nonpayable",
      "type": "constructor"
    },
    {
      "anonymous": false,
      "inputs": [
        {
          "indexed": true,
          "internalType": "uint256",
          "name": "matchId",
          "type": "uint256"
        },
        {
          "indexed": true,
          "internalType": "address",
          "name": "player1",
          "type": "address"
        },
        {
          "indexed": true,
          "internalType": "address",
          "name": "player2",
          "type": "address"
        },
        {
          "indexed": false,
          "internalType": "uint256",
          "name": "betAmount",
          "type": "uint256"
        }
      ],
      "name": "MatchCreated",
      "type": "event"
    },
    {
      "anonymous": false,
      "inputs": [
        {
          "indexed": true,
          "internalType": "uint256",
          "name": "matchId",
          "type": "uint256"
        },
        {
          "indexed": false,
          "internalType": "address",
          "name": "winner",
          "type": "address"
        }
      ],
      "name": "MatchSettled",
      "type": "event"
    },
    {
      "inputs": [
        {
          "internalType": "address",
          "name": "_player2",
          "type": "address"
        }
      ],
      "name": "createMatch",
      "outputs": [],
      "stateMutability": "payable",
      "type": "function"
    },
    {
      "inputs": [
        {
          "internalType": "uint256",
          "name": "_matchId",
          "type": "uint256"
        }
      ],
      "name": "joinMatch",
      "outputs": [],
      "stateMutability": "payable",
      "type": "function"
    },
    {
      "inputs": [],
      "name": "matchCount",
      "outputs": [
        {
          "internalType": "uint256",
          "name": "",
          "type": "uint256"
        }
      ],
      "stateMutability": "view",
      "type": "function"
    },
    {
      "inputs": [
        {
          "internalType": "uint256",
          "name": "",
          "type": "uint256"
        }
      ],
      "name": "matches",
      "outputs": [
        {
          "internalType": "address",
          "name": "player1",
          "type": "address"
        },
        {
          "internalType": "address",
          "name": "player2",
          "type": "address"
        },
        {
          "internalType": "uint256",
          "name": "betAmount",
          "type": "uint256"
        },
        {
          "internalType": "bool",
          "name": "isActive",
          "type": "bool"
        },
        {
          "internalType": "address",
          "name": "winner",
          "type": "address"
        }
      ],
      "stateMutability": "view",
      "type": "function"
    },
    {
      "inputs": [],
      "name": "owner",
      "outputs": [
        {
          "internalType": "address",
          "name": "",
          "type": "address"
        }
      ],
      "stateMutability": "view",
      "type": "function"
    },
    {
      "inputs": [
        {
          "internalType": "uint256",
          "name": "_matchId",
          "type": "uint256"
        },
        {
          "internalType": "address",
          "name": "_winner",
          "type": "address"
        }
      ],
      "name": "settleMatch",
      "outputs": [],
      "stateMutability": "nonpayable",
      "type": "function"
    }
  ],
  "bytecode": "0x6080604052348015600f57600080fd5b50336000806101000a81548173ffffffffffffffffffffffffffffffffffffffff021916908373ffffffffffffffffffffffffffffffffffffffff160217905550610f1a8061005f6000396000f3fe6080604052600436106100555760003560e01c80634768d4ef1461005a578063583262ab1461009b57806379c4264b146100b75780638da5cb5b146100e2578063b1a2572e1461010d578063feb8c43814610136575b600080fd5b34801561006657600080fd5b50610081600480360381019061007c919061091c565b610152565b6040516100929594939291906109b4565b60405180910390f35b6100b560048036038101906100b09190610a33565b6101f5565b005b3480156100c357600080fd5b506100cc6104ad565b6040516100d99190610a60565b60405180910390f35b3480156100ee57600080fd5b506100f76104b3565b6040516101049190610a7b565b60405180910390f35b34801561011957600080fd5b50610134600480360381019061012f9190610a96565b6104d7565b005b610150600480360381019061014b919061091c565b61079d565b005b60026020528060005260406000206000915090508060000160009054906101000a900473ffffffffffffffffffffffffffffffffffffffff16908060010160009054906101000a900473ffffffffffffffffffffffffffffffffffffffff16908060020154908060030160009054906101000a900460ff16908060030160019054906101000a900473ffffffffffffffffffffffffffffffffffffffff16905085565b60003411610238576040517f08c379a000000000000000000000000000000000000000000000000000000000815260040161022f90610b59565b60405180910390fd5b3373ffffffffffffffffffffffffffffffffffffffff168173ffffffffffffffffffffffffffffffffffffffff16036102a6576040517f08c379a000000000000000000000000000000000000000000000000000000000815260040161029d90610bc5565b60405180910390fd5b6040518060a001604052803373ffffffffffffffffffffffffffffffffffffffff1681526020018273ffffffffffffffffffffffffffffffffffffffff168152602001348152602001600115158152602001600073ffffffffffffffffffffffffffffffffffffffff1681525060026000600154815260200190815260200160002060008201518160000160006101000a81548173ffffffffffffffffffffffffffffffffffffffff021916908373ffffffffffffffffffffffffffffffffffffffff16021790555060208201518160010160006101000a81548173ffffffffffffffffffffffffffffffffffffffff021916908373ffffffffffffffffffffffffffffffffffffffff1602179055506040820151816002015560608201518160030160006101000a81548160ff02191690831515021790555060808201518160030160016101000a81548173ffffffffffffffffffffffffffffffffffffffff021916908373ffffffffffffffffffffffffffffffffffffffff1602179055509050508073ffffffffffffffffffffffffffffffffffffffff163373ffffffffffffffffffffffffffffffffffffffff166001547f2c9089bdab8aeea6a8c5e41b785290b63781dd5c648c9c824bcc0883237cff323460405161048a9190610a60565b60405180910390a4600160008154809291906104a590610c14565b919050555050565b60015481565b60008054906101000a900473ffffffffffffffffffffffffffffffffffffffff1681565b600060026000848152602001908152602001600020905060008054906101000a900473ffffffffffffffffffffffffffffffffffffffff1673ffffffffffffffffffffffffffffffffffffffff163373ffffffffffffffffffffffffffffffffffffffff161461057c576040517f08c379a000000000000000000000000000000000000000000000000000000000815260040161057390610ca8565b60405180910390fd5b8060030160009054906101000a900460ff166105cd576040517f08c379a00000000000000000000000000000000000000000000000000000000081526004016105c490610d14565b60405180910390fd5b8060000160009054906101000a900473ffffffffffffffffffffffffffffffffffffffff1673ffffffffffffffffffffffffffffffffffffffff168273ffffffffffffffffffffffffffffffffffffffff16148061067a57508060010160009054906101000a900473ffffffffffffffffffffffffffffffffffffffff1673ffffffffffffffffffffffffffffffffffffffff168273ffffffffffffffffffffffffffffffffffffffff16145b6106b9576040517f08c379a00000000000000000000000000000000000000000000000000000000081526004016106b090610d80565b60405180910390fd5b60008160030160006101000a81548160ff021916908315150217905550818160030160016101000a81548173ffffffffffffffffffffffffffffffffffffffff021916908373ffffffffffffffffffffffffffffffffffffffff1602179055508173ffffffffffffffffffffffffffffffffffffffff166108fc479081150290604051600060405180830381858888f1935050505015801561075f573d6000803e3d6000fd5b50827f65b7311a85ad8ec515181d6dd650564ab4b8e3f0b15cac32be1360c23e0eabff836040516107909190610a7b565b60405180910390a2505050565b60006002600083815260200190815260200160002090508060030160009054906101000a900460ff16610805576040517f08c379a00000000000000000000000000000000000000000000000000000000081526004016107fc90610dec565b60405180910390fd5b8060010160009054906101000a900473ffffffffffffffffffffffffffffffffffffffff1673ffffffffffffffffffffffffffffffffffffffff163373ffffffffffffffffffffffffffffffffffffffff1614610897576040517f08c379a000000000000000000000000000000000000000000000000000000000815260040161088e90610e58565b60405180910390fd5b806002015434146108dd576040517f08c379a00000000000000000000000000000000000000000000000000000000081526004016108d490610ec4565b60405180910390fd5b5050565b600080fd5b6000819050919050565b6108f9816108e6565b811461090457600080fd5b50565b600081359050610916816108f0565b92915050565b600060208284031215610932576109316108e1565b5b600061094084828501610907565b91505092915050565b600073ffffffffffffffffffffffffffffffffffffffff82169050919050565b600061097482610949565b9050919050565b61098481610969565b82525050565b610993816108e6565b82525050565b60008115159050919050565b6109ae81610999565b82525050565b600060a0820190506109c9600083018861097b565b6109d6602083018761097b565b6109e3604083018661098a565b6109f060608301856109a5565b6109fd608083018461097b565b9695505050505050565b610a1081610969565b8114610a1b57600080fd5b50565b600081359050610a2d81610a07565b92915050565b600060208284031215610a4957610a486108e1565b5b6000610a5784828501610a1e565b91505092915050565b6000602082019050610a75600083018461098a565b92915050565b6000602082019050610a90600083018461097b565b92915050565b60008060408385031215610aad57610aac6108e1565b5b6000610abb85828601610907565b9250506020610acc85828601610a1e565b9150509250929050565b600082825260208201905092915050565b7f42657420616d6f756e74206d7573742062652067726561746572207468616e2060008201527f3000000000000000000000000000000000000000000000000000000000000000602082015250565b6000610b43602183610ad6565b9150610b4e82610ae7565b604082019050919050565b60006020820190508181036000830152610b7281610b36565b9050919050565b7f596f752063616e6e6f7420706c617920616761696e737420796f757273656c66600082015250565b6000610baf602083610ad6565b9150610bba82610b79565b602082019050919050565b60006020820190508181036000830152610bde81610ba2565b9050919050565b7f4e487b7100000000000000000000000000000000000000000000000000000000600052601160045260246000fd5b6000610c1f826108e6565b91507fffffffffffffffffffffffffffffffffffffffffffffffffffffffffffffffff8203610c5157610c50610be5565b5b600182019050919050565b7f4f6e6c79206f776e65722063616e20736574746c65206d617463680000000000600082015250565b6000610c92601b83610ad6565b9150610c9d82610c5c565b602082019050919050565b60006020820190508181036000830152610cc181610c85565b9050919050565b7f4d6174636820616c726561647920736574746c65640000000000000000000000600082015250565b6000610cfe601583610ad6565b9150610d0982610cc8565b602082019050919050565b60006020820190508181036000830152610d2d81610cf1565b9050919050565b7f496e76616c69642077696e6e6572000000000000000000000000000000000000600082015250565b6000610d6a600e83610ad6565b9150610d7582610d34565b602082019050919050565b60006020820190508181036000830152610d9981610d5d565b9050919050565b7f4d61746368206e6f742061637469766500000000000000000000000000000000600082015250565b6000610dd6601083610ad6565b9150610de182610da0565b602082019050919050565b60006020820190508181036000830152610e0581610dc9565b9050919050565b7f4e6f7420696e7669746564000000000000000000000000000000000000000000600082015250565b6000610e42600b83610ad6565b9150610e4d82610e0c565b602082019050919050565b60006020820190508181036000830152610e7181610e35565b9050919050565b7f4d7573742073656e6420657175616c2062657400000000000000000000000000600082015250565b6000610eae601383610ad6565b9150610eb982610e78565b602082019050919050565b60006020820190508181036000830152610edd81610ea1565b905091905056fea26469706673582212202038dd38f1effe6aa2420fedc41d32d7764108bf927cb207eafa4fb9d6c2421264736f6c634300081c0033",
  "linkReferences": {},
  "deployedLinkReferences": {}
}