{
  "_format": "hh-sol-artifact-1",
  "contractName": "GameEscrow",
  "sourceName": "contracts/GameEscrow.sol",
  "abi": [
    {
      "inputs": [],
      "name": "AlreadyHasOpponent",
      "type": "error"
    },
    {
      "inputs": [],
      "name": "CreatorCannotJoin",
      "type": "error"
    },
    {
      "inputs": [],
      "name": "IncorrectBetAmount",
      "type": "error"
    },
    {
      "inputs": [],
      "name": "InvalidBet",
      "type": "error"
    },
    {
      "inputs": [],
      "name": "InvalidMove",
      "type": "error"
    },
    {
      "inputs": [],
      "name": "MatchNotActive",
      "type": "error"
    },
    {
      "inputs": [],
      "name": "MatchNotFound",
      "type": "error"
    },
    {
      "inputs": [],
      "name": "MatchNotInProgress",
      "type": "error"
    },
    {
      "inputs": [],
      "name": "NotParticipant",
      "type": "error"
    },
    {
      "inputs": [],
      "name": "NotPlayerTurn",
      "type": "error"
    },
    {
      "anonymous": false,
      "inputs": [
        {
          "indexed": true,
          "internalType": "uint256",
          "name": "matchId",
          "type": "uint256"
        },
        {
          "indexed": true,
          "internalType": "address",
          "name": "player1",
          "type": "address"
        },
        {
          "indexed": false,
          "internalType": "uint256",
          "name": "betAmount",
          "type": "uint256"
        }
      ],
      "name": "MatchCreated",
      "type": "event"
    },
    {
      "anonymous": false,
      "inputs": [
        {
          "indexed": true,
          "internalType": "uint256",
          "name": "matchId",
          "type": "uint256"
        },
        {
          "indexed": false,
          "internalType": "address",
          "name": "winner",
          "type": "address"
        },
        {
          "indexed": false,
          "internalType": "bool",
          "name": "isDraw",
          "type": "bool"
        },
        {
          "indexed": false,
          "internalType": "uint256",
          "name": "payout",
          "type": "uint256"
        }
      ],
      "name": "MatchFinished",
      "type": "event"
    },
    {
      "anonymous": false,
      "inputs": [
        {
          "indexed": true,
          "internalType": "uint256",
          "name": "matchId",
          "type": "uint256"
        },
        {
          "indexed": true,
          "internalType": "address",
          "name": "player2",
          "type": "address"
        }
      ],
      "name": "MatchJoined",
      "type": "event"
    },
    {
      "anonymous": false,
      "inputs": [
        {
          "indexed": true,
          "internalType": "uint256",
          "name": "matchId",
          "type": "uint256"
        },
        {
          "indexed": true,
          "internalType": "address",
          "name": "currentTurn",
          "type": "address"
        }
      ],
      "name": "MatchStarted",
      "type": "event"
    },
    {
      "anonymous": false,
      "inputs": [
        {
          "indexed": true,
          "internalType": "uint256",
          "name": "matchId",
          "type": "uint256"
        },
        {
          "indexed": true,
          "internalType": "address",
          "name": "player",
          "type": "address"
        },
        {
          "indexed": false,
          "internalType": "uint8",
          "name": "position",
          "type": "uint8"
        },
        {
          "indexed": false,
          "internalType": "uint8",
          "name": "mark",
          "type": "uint8"
        }
      ],
      "name": "MovePlayed",
      "type": "event"
    },
    {
      "inputs": [],
      "name": "BOARD_SIZE",
      "outputs": [
        {
          "internalType": "uint256",
          "name": "",
          "type": "uint256"
        }
      ],
      "stateMutability": "view",
      "type": "function"
    },
    {
      "inputs": [],
      "name": "createMatch",
      "outputs": [
        {
          "internalType": "uint256",
          "name": "matchId",
          "type": "uint256"
        }
      ],
      "stateMutability": "payable",
      "type": "function"
    },
    {
      "inputs": [
        {
          "internalType": "uint256",
          "name": "matchId",
          "type": "uint256"
        }
      ],
      "name": "getMatch",
      "outputs": [
        {
          "components": [
            {
              "internalType": "address",
              "name": "player1",
              "type": "address"
            },
            {
              "internalType": "address",
              "name": "player2",
              "type": "address"
            },
            {
              "internalType": "uint256",
              "name": "betAmount",
              "type": "uint256"
            },
            {
              "internalType": "enum GameEscrow.MatchState",
              "name": "state",
              "type": "uint8"
            },
            {
              "internalType": "address",
              "name": "winner",
              "type": "address"
            },
            {
              "internalType": "address",
              "name": "currentTurn",
              "type": "address"
            },
            {
              "internalType": "uint8",
              "name": "moves",
              "type": "uint8"
            },
            {
              "internalType": "uint8[9]",
              "name": "board",
              "type": "uint8[9]"
            }
          ],
          "internalType": "struct GameEscrow.Match",
          "name": "",
          "type": "tuple"
        }
      ],
      "stateMutability": "view",
      "type": "function"
    },
    {
      "inputs": [],
      "name": "getMatches",
      "outputs": [
        {
          "components": [
            {
              "internalType": "address",
              "name": "player1",
              "type": "address"
            },
            {
              "internalType": "address",
              "name": "player2",
              "type": "address"
            },
            {
              "internalType": "uint256",
              "name": "betAmount",
              "type": "uint256"
            },
            {
              "internalType": "enum GameEscrow.MatchState",
              "name": "state",
              "type": "uint8"
            },
            {
              "internalType": "address",
              "name": "winner",
              "type": "address"
            },
            {
              "internalType": "address",
              "name": "currentTurn",
              "type": "address"
            },
            {
              "internalType": "uint8",
              "name": "moves",
              "type": "uint8"
            },
            {
              "internalType": "uint8[9]",
              "name": "board",
              "type": "uint8[9]"
            }
          ],
          "internalType": "struct GameEscrow.Match[]",
          "name": "",
          "type": "tuple[]"
        }
      ],
      "stateMutability": "view",
      "type": "function"
    },
    {
      "inputs": [
        {
          "internalType": "uint256",
          "name": "matchId",
          "type": "uint256"
        }
      ],
      "name": "joinMatch",
      "outputs": [],
      "stateMutability": "payable",
      "type": "function"
    },
    {
      "inputs": [
        {
          "internalType": "uint256",
          "name": "matchId",
          "type": "uint256"
        },
        {
          "internalType": "uint8",
          "name": "position",
          "type": "uint8"
        }
      ],
      "name": "makeMove",
      "outputs": [],
      "stateMutability": "nonpayable",
      "type": "function"
    },
    {
      "inputs": [],
      "name": "matchCount",
      "outputs": [
        {
          "internalType": "uint256",
          "name": "",
          "type": "uint256"
        }
      ],
      "stateMutability": "view",
      "type": "function"
    },
    {
      "inputs": [
        {
          "internalType": "uint256",
          "name": "",
          "type": "uint256"
        }
      ],
      "name": "matches",
      "outputs": [
        {
          "internalType": "address",
          "name": "player1",
          "type": "address"
        },
        {
          "internalType": "address",
          "name": "player2",
          "type": "address"
        },
        {
          "internalType": "uint256",
          "name": "betAmount",
          "type": "uint256"
        },
        {
          "internalType": "enum GameEscrow.MatchState",
          "name": "state",
          "type": "uint8"
        },
        {
          "internalType": "address",
          "name": "winner",
          "type": "address"
        },
        {
          "internalType": "address",
          "name": "currentTurn",
          "type": "address"
        },
        {
          "internalType": "uint8",
          "name": "moves",
          "type": "uint8"
        }
      ],
      "stateMutability": "view",
      "type": "function"
    }
  ],
  "bytecode": "0x6080604052348015600f57600080fd5b506122e78061001f6000396000f3fe60806040526004361061007b5760003560e01c80637fd6f7c41161004e5780637fd6f7c414610156578063a0cc641a1461017f578063dc4a3e951461019d578063feb8c438146101c85761007b565b80632c70120e146100805780633d092b3d146100ab5780634768d4ef146100e857806379c4264b1461012b575b600080fd5b34801561008c57600080fd5b506100956101e4565b6040516100a29190611db7565b60405180910390f35b3480156100b757600080fd5b506100d260048036038101906100cd9190611e0a565b6104c3565b6040516100df9190611ed9565b60405180910390f35b3480156100f457600080fd5b5061010f600480360381019061010a9190611e0a565b610786565b6040516101229796959493929190611f31565b60405180910390f35b34801561013757600080fd5b50610140610862565b60405161014d9190611fa0565b60405180910390f35b34801561016257600080fd5b5061017d60048036038101906101789190611fe7565b610868565b005b610187610dfa565b6040516101949190611fa0565b60405180910390f35b3480156101a957600080fd5b506101b2611070565b6040516101bf9190611fa0565b60405180910390f35b6101e260048036038101906101dd9190611e0a565b611075565b005b60606000805467ffffffffffffffff81111561020357610202612027565b5b60405190808252806020026020018201604052801561023c57816020015b610229611a01565b8152602001906001900390816102215790505b50905060005b6000548110156104bb5760016000828152602001908152602001600020604051806101000160405290816000820160009054906101000a900473ffffffffffffffffffffffffffffffffffffffff1673ffffffffffffffffffffffffffffffffffffffff1673ffffffffffffffffffffffffffffffffffffffff1681526020016001820160009054906101000a900473ffffffffffffffffffffffffffffffffffffffff1673ffffffffffffffffffffffffffffffffffffffff1673ffffffffffffffffffffffffffffffffffffffff168152602001600282015481526020016003820160009054906101000a900460ff16600281111561034657610345611b62565b5b600281111561035857610357611b62565b5b81526020016003820160019054906101000a900473ffffffffffffffffffffffffffffffffffffffff1673ffffffffffffffffffffffffffffffffffffffff1673ffffffffffffffffffffffffffffffffffffffff1681526020016004820160009054906101000a900473ffffffffffffffffffffffffffffffffffffffff1673ffffffffffffffffffffffffffffffffffffffff1673ffffffffffffffffffffffffffffffffffffffff1681526020016004820160149054906101000a900460ff1660ff1660ff16815260200160058201600980602002604051908101604052809291908260098015610487576020028201916000905b82829054906101000a900460ff1660ff16815260200190600101906020826000010492830192600103820291508084116104505790505b5050505050815250508282815181106104a3576104a2612056565b5b60200260200101819052508080600101915050610242565b508091505090565b6104cb611a01565b600060016000848152602001908152602001600020604051806101000160405290816000820160009054906101000a900473ffffffffffffffffffffffffffffffffffffffff1673ffffffffffffffffffffffffffffffffffffffff1673ffffffffffffffffffffffffffffffffffffffff1681526020016001820160009054906101000a900473ffffffffffffffffffffffffffffffffffffffff1673ffffffffffffffffffffffffffffffffffffffff1673ffffffffffffffffffffffffffffffffffffffff168152602001600282015481526020016003820160009054906101000a900460ff1660028111156105c7576105c6611b62565b5b60028111156105d9576105d8611b62565b5b81526020016003820160019054906101000a900473ffffffffffffffffffffffffffffffffffffffff1673ffffffffffffffffffffffffffffffffffffffff1673ffffffffffffffffffffffffffffffffffffffff1681526020016004820160009054906101000a900473ffffffffffffffffffffffffffffffffffffffff1673ffffffffffffffffffffffffffffffffffffffff1673ffffffffffffffffffffffffffffffffffffffff1681526020016004820160149054906101000a900460ff1660ff1660ff16815260200160058201600980602002604051908101604052809291908260098015610708576020028201916000905b82829054906101000a900460ff1660ff16815260200190600101906020826000010492830192600103820291508084116106d15790505b5050505050815250509050600073ffffffffffffffffffffffffffffffffffffffff16816000015173ffffffffffffffffffffffffffffffffffffffff160361077d576040517fb19089b800000000000000000000000000000000000000000000000000000000815260040160405180910390fd5b80915050919050565b60016020528060005260406000206000915090508060000160009054906101000a900473ffffffffffffffffffffffffffffffffffffffff16908060010160009054906101000a900473ffffffffffffffffffffffffffffffffffffffff16908060020154908060030160009054906101000a900460ff16908060030160019054906101000a900473ffffffffffffffffffffffffffffffffffffffff16908060040160009054906101000a900473ffffffffffffffffffffffffffffffffffffffff16908060040160149054906101000a900460ff16905087565b60005481565b6000600160008481526020019081526020016000209050600073ffffffffffffffffffffffffffffffffffffffff168160000160009054906101000a900473ffffffffffffffffffffffffffffffffffffffff1673ffffffffffffffffffffffffffffffffffffffff1603610909576040517fb19089b800000000000000000000000000000000000000000000000000000000815260040160405180910390fd5b6001600281111561091d5761091c611b62565b5b8160030160009054906101000a900460ff16600281111561094157610940611b62565b5b14610978576040517fca758aec00000000000000000000000000000000000000000000000000000000815260040160405180910390fd5b8060000160009054906101000a900473ffffffffffffffffffffffffffffffffffffffff1673ffffffffffffffffffffffffffffffffffffffff163373ffffffffffffffffffffffffffffffffffffffff1614158015610a2857508060010160009054906101000a900473ffffffffffffffffffffffffffffffffffffffff1673ffffffffffffffffffffffffffffffffffffffff163373ffffffffffffffffffffffffffffffffffffffff1614155b15610a5f576040517fe438f8ce00000000000000000000000000000000000000000000000000000000815260040160405180910390fd5b8060040160009054906101000a900473ffffffffffffffffffffffffffffffffffffffff1673ffffffffffffffffffffffffffffffffffffffff163373ffffffffffffffffffffffffffffffffffffffff1614610ae8576040517f2679264e00000000000000000000000000000000000000000000000000000000815260040160405180910390fd5b60098260ff1610610b25576040517f87822d3400000000000000000000000000000000000000000000000000000000815260040160405180910390fd5b6000816005018360ff1660098110610b4057610b3f612056565b5b602091828204019190069054906101000a900460ff1660ff1614610b90576040517f87822d3400000000000000000000000000000000000000000000000000000000815260040160405180910390fd5b60008160000160009054906101000a900473ffffffffffffffffffffffffffffffffffffffff1673ffffffffffffffffffffffffffffffffffffffff163373ffffffffffffffffffffffffffffffffffffffff1614610bf0576002610bf3565b60015b905080826005018460ff1660098110610c0f57610c0e612056565b5b602091828204019190066101000a81548160ff021916908360ff16021790555060018260040160148282829054906101000a900460ff16610c5091906120b4565b92506101000a81548160ff021916908360ff1602179055503373ffffffffffffffffffffffffffffffffffffffff16847f59be239aa4d17ffdecefb90e241828a2f95e7ce03fd49ba30c693bdf621da7068584604051610cb19291906120e9565b60405180910390a3610cc682600501826113d2565b15610cdd57610cd68285336116d1565b5050610df6565b60098260040160149054906101000a900460ff1660ff1603610d0a57610d0382856117e7565b5050610df6565b8160000160009054906101000a900473ffffffffffffffffffffffffffffffffffffffff1673ffffffffffffffffffffffffffffffffffffffff163373ffffffffffffffffffffffffffffffffffffffff1614610d8b578160000160009054906101000a900473ffffffffffffffffffffffffffffffffffffffff16610db1565b8160010160009054906101000a900473ffffffffffffffffffffffffffffffffffffffff165b8260040160006101000a81548173ffffffffffffffffffffffffffffffffffffffff021916908373ffffffffffffffffffffffffffffffffffffffff16021790555050505b5050565b6000803403610e35576040517faa82224900000000000000000000000000000000000000000000000000000000815260040160405180910390fd5b60005490506000600160008381526020019081526020016000209050338160000160006101000a81548173ffffffffffffffffffffffffffffffffffffffff021916908373ffffffffffffffffffffffffffffffffffffffff16021790555060008160010160006101000a81548173ffffffffffffffffffffffffffffffffffffffff021916908373ffffffffffffffffffffffffffffffffffffffff16021790555034816002018190555060008160030160006101000a81548160ff02191690836002811115610f0957610f08611b62565b5b021790555060008160030160016101000a81548173ffffffffffffffffffffffffffffffffffffffff021916908373ffffffffffffffffffffffffffffffffffffffff16021790555060008160040160006101000a81548173ffffffffffffffffffffffffffffffffffffffff021916908373ffffffffffffffffffffffffffffffffffffffff16021790555060008160040160146101000a81548160ff021916908360ff16021790555060005b6009811015611005576000826005018260098110610fd857610fd7612056565b5b602091828204019190066101000a81548160ff021916908360ff1602179055508080600101915050610fb7565b5060008081548092919061101890612112565b91905055503373ffffffffffffffffffffffffffffffffffffffff16827fd54e72c7c537da5aba0c3d338b5fcbe4ee8d6e4dce121c81c8c57aa13e5c6d64346040516110649190611fa0565b60405180910390a35090565b600981565b6000600160008381526020019081526020016000209050600073ffffffffffffffffffffffffffffffffffffffff168160000160009054906101000a900473ffffffffffffffffffffffffffffffffffffffff1673ffffffffffffffffffffffffffffffffffffffff1603611116576040517fb19089b800000000000000000000000000000000000000000000000000000000815260040160405180910390fd5b6000600281111561112a57611129611b62565b5b8160030160009054906101000a900460ff16600281111561114e5761114d611b62565b5b14611185576040517fdbe1416f00000000000000000000000000000000000000000000000000000000815260040160405180910390fd5b8060000160009054906101000a900473ffffffffffffffffffffffffffffffffffffffff1673ffffffffffffffffffffffffffffffffffffffff163373ffffffffffffffffffffffffffffffffffffffff160361120e576040517f24c5925c00000000000000000000000000000000000000000000000000000000815260040160405180910390fd5b8060020154341461124b576040517f6d14158600000000000000000000000000000000000000000000000000000000815260040160405180910390fd5b338160010160006101000a81548173ffffffffffffffffffffffffffffffffffffffff021916908373ffffffffffffffffffffffffffffffffffffffff16021790555060018160030160006101000a81548160ff021916908360028111156112b6576112b5611b62565b5b02179055508060000160009054906101000a900473ffffffffffffffffffffffffffffffffffffffff168160040160006101000a81548173ffffffffffffffffffffffffffffffffffffffff021916908373ffffffffffffffffffffffffffffffffffffffff1602179055503373ffffffffffffffffffffffffffffffffffffffff16827f50d6e5d288766a7340b6110b6738cac822c48c128a47399df2fad303041f8d5060405160405180910390a38060040160009054906101000a900473ffffffffffffffffffffffffffffffffffffffff1673ffffffffffffffffffffffffffffffffffffffff16827f4943fa406bde9b8119097e2f5f691a7efdf64d7781d8fe451853e0dd995b049060405160405180910390a35050565b6000806040518061010001604052806040518060600160405280600060ff1660ff168152602001600160ff1660ff168152602001600260ff1660ff1681525081526020016040518060600160405280600360ff1660ff168152602001600460ff1660ff168152602001600560ff1660ff1681525081526020016040518060600160405280600660ff1660ff168152602001600760ff1660ff168152602001600860ff1660ff1681525081526020016040518060600160405280600060ff1660ff168152602001600360ff1660ff168152602001600660ff1660ff1681525081526020016040518060600160405280600160ff1660ff168152602001600460ff1660ff168152602001600760ff1660ff1681525081526020016040518060600160405280600260ff1660ff168152602001600560ff1660ff168152602001600860ff1660ff1681525081526020016040518060600160405280600060ff1660ff168152602001600460ff1660ff168152602001600860ff1660ff1681525081526020016040518060600160405280600260ff1660ff168152602001600460ff1660ff168152602001600660ff1660ff16815250815250905060005b60088110156116c45760008282600881106115aa576115a9612056565b5b602002015190508460ff1686826000600381106115ca576115c9612056565b5b602002015160ff16600981106115e3576115e2612056565b5b602091828204019190069054906101000a900460ff1660ff1614801561165157508460ff16868260016003811061161d5761161c612056565b5b602002015160ff166009811061163657611635612056565b5b602091828204019190069054906101000a900460ff1660ff16145b80156116a557508460ff16868260026003811061167157611670612056565b5b602002015160ff166009811061168a57611689612056565b5b602091828204019190069054906101000a900460ff1660ff16145b156116b657600193505050506116cb565b50808060010191505061158c565b5060009150505b92915050565b60028360030160006101000a81548160ff021916908360028111156116f9576116f8611b62565b5b0217905550808360030160016101000a81548173ffffffffffffffffffffffffffffffffffffffff021916908373ffffffffffffffffffffffffffffffffffffffff16021790555060008360040160006101000a81548173ffffffffffffffffffffffffffffffffffffffff021916908373ffffffffffffffffffffffffffffffffffffffff160217905550600060028460020154611798919061215a565b90506117a48282611950565b827f5b8aed93cf7c51c0ed0b01abc7a48da55ce2030ea6eb6748421a6ec5557869c2836000846040516117d9939291906121b7565b60405180910390a250505050565b60028260030160006101000a81548160ff0219169083600281111561180f5761180e611b62565b5b021790555060008260030160016101000a81548173ffffffffffffffffffffffffffffffffffffffff021916908373ffffffffffffffffffffffffffffffffffffffff16021790555060008260040160006101000a81548173ffffffffffffffffffffffffffffffffffffffff021916908373ffffffffffffffffffffffffffffffffffffffff1602179055506000826002015490506118d38360000160009054906101000a900473ffffffffffffffffffffffffffffffffffffffff1682611950565b6119018360010160009054906101000a900473ffffffffffffffffffffffffffffffffffffffff1682611950565b817f5b8aed93cf7c51c0ed0b01abc7a48da55ce2030ea6eb6748421a6ec5557869c260006001600285611934919061215a565b604051611943939291906121b7565b60405180910390a2505050565b60008273ffffffffffffffffffffffffffffffffffffffff16826040516119769061221f565b60006040518083038185875af1925050503d80600081146119b3576040519150601f19603f3d011682016040523d82523d6000602084013e6119b8565b606091505b50509050806119fc576040517f08c379a00000000000000000000000000000000000000000000000000000000081526004016119f390612291565b60405180910390fd5b505050565b604051806101000160405280600073ffffffffffffffffffffffffffffffffffffffff168152602001600073ffffffffffffffffffffffffffffffffffffffff1681526020016000815260200160006002811115611a6257611a61611b62565b5b8152602001600073ffffffffffffffffffffffffffffffffffffffff168152602001600073ffffffffffffffffffffffffffffffffffffffff168152602001600060ff168152602001611ab3611ab9565b81525090565b604051806101200160405280600990602082028036833780820191505090505090565b600081519050919050565b600082825260208201905092915050565b6000819050602082019050919050565b600073ffffffffffffffffffffffffffffffffffffffff82169050919050565b6000611b3382611b08565b9050919050565b611b4381611b28565b82525050565b6000819050919050565b611b5c81611b49565b82525050565b7f4e487b7100000000000000000000000000000000000000000000000000000000600052602160045260246000fd5b60038110611ba257611ba1611b62565b5b50565b6000819050611bb382611b91565b919050565b6000611bc382611ba5565b9050919050565b611bd381611bb8565b82525050565b600060ff82169050919050565b611bef81611bd9565b82525050565b600060099050919050565b600081905092915050565b6000819050919050565b6000611c218383611be6565b60208301905092915050565b6000602082019050919050565b611c4381611bf5565b611c4d8184611c00565b9250611c5882611c0b565b8060005b83811015611c89578151611c708782611c15565b9650611c7b83611c2d565b925050600181019050611c5c565b505050505050565b61020082016000820151611ca86000850182611b3a565b506020820151611cbb6020850182611b3a565b506040820151611cce6040850182611b53565b506060820151611ce16060850182611bca565b506080820151611cf46080850182611b3a565b5060a0820151611d0760a0850182611b3a565b5060c0820151611d1a60c0850182611be6565b5060e0820151611d2d60e0850182611c3a565b50505050565b6000611d3f8383611c91565b6102008301905092915050565b6000602082019050919050565b6000611d6482611adc565b611d6e8185611ae7565b9350611d7983611af8565b8060005b83811015611daa578151611d918882611d33565b9750611d9c83611d4c565b925050600181019050611d7d565b5085935050505092915050565b60006020820190508181036000830152611dd18184611d59565b905092915050565b600080fd5b611de781611b49565b8114611df257600080fd5b50565b600081359050611e0481611dde565b92915050565b600060208284031215611e2057611e1f611dd9565b5b6000611e2e84828501611df5565b91505092915050565b61020082016000820151611e4e6000850182611b3a565b506020820151611e616020850182611b3a565b506040820151611e746040850182611b53565b506060820151611e876060850182611bca565b506080820151611e9a6080850182611b3a565b5060a0820151611ead60a0850182611b3a565b5060c0820151611ec060c0850182611be6565b5060e0820151611ed360e0850182611c3a565b50505050565b600061020082019050611eef6000830184611e37565b92915050565b611efe81611b28565b82525050565b611f0d81611b49565b82525050565b611f1c81611bb8565b82525050565b611f2b81611bd9565b82525050565b600060e082019050611f46600083018a611ef5565b611f536020830189611ef5565b611f606040830188611f04565b611f6d6060830187611f13565b611f7a6080830186611ef5565b611f8760a0830185611ef5565b611f9460c0830184611f22565b98975050505050505050565b6000602082019050611fb56000830184611f04565b92915050565b611fc481611bd9565b8114611fcf57600080fd5b50565b600081359050611fe181611fbb565b92915050565b60008060408385031215611ffe57611ffd611dd9565b5b600061200c85828601611df5565b925050602061201d85828601611fd2565b9150509250929050565b7f4e487b7100000000000000000000000000000000000000000000000000000000600052604160045260246000fd5b7f4e487b7100000000000000000000000000000000000000000000000000000000600052603260045260246000fd5b7f4e487b7100000000000000000000000000000000000000000000000000000000600052601160045260246000fd5b60006120bf82611bd9565b91506120ca83611bd9565b9250828201905060ff8111156120e3576120e2612085565b5b92915050565b60006040820190506120fe6000830185611f22565b61210b6020830184611f22565b9392505050565b600061211d82611b49565b91507fffffffffffffffffffffffffffffffffffffffffffffffffffffffffffffffff820361214f5761214e612085565b5b600182019050919050565b600061216582611b49565b915061217083611b49565b925082820261217e81611b49565b9150828204841483151761219557612194612085565b5b5092915050565b60008115159050919050565b6121b18161219c565b82525050565b60006060820190506121cc6000830186611ef5565b6121d960208301856121a8565b6121e66040830184611f04565b949350505050565b600081905092915050565b50565b60006122096000836121ee565b9150612214826121f9565b600082019050919050565b600061222a826121fc565b9150819050919050565b600082825260208201905092915050565b7f5472616e73666572206661696c65640000000000000000000000000000000000600082015250565b600061227b600f83612234565b915061228682612245565b602082019050919050565b600060208201905081810360008301526122aa8161226e565b905091905056fea26469706673582212203f217945083170b63bc615fd2f79df0ce098544ca0324e5f5225196424d4dbe264736f6c634300081c0033",
  "linkReferences": {},
  "deployedLinkReferences": {}
}