{
  "_format": "hh-sol-artifact-1",
  "contractName": "GameEscrow",
  "sourceName": "contracts/GameEscrow.sol",
  "abi": [
    {
      "inputs": [],
      "name": "AlreadyHasOpponent",
      "type": "error"
    },
    {
      "inputs": [],
      "name": "CreatorCannotJoin",
      "type": "error"
    },
    {
      "inputs": [],
      "name": "IncorrectBetAmount",
      "type": "error"
    },
    {
      "inputs": [],
      "name": "InvalidBet",
      "type": "error"
    },
    {
      "inputs": [],
      "name": "InvalidMove",
      "type": "error"
    },
    {
      "inputs": [],
      "name": "MatchNotActive",
      "type": "error"
    },
    {
      "inputs": [],
      "name": "MatchNotFound",
      "type": "error"
    },
    {
      "inputs": [],
      "name": "MatchNotInProgress",
      "type": "error"
    },
    {
      "inputs": [],
      "name": "NotParticipant",
      "type": "error"
    },
    {
      "inputs": [],
      "name": "NotPlayerTurn",
      "type": "error"
    },
    {
      "anonymous": false,
      "inputs": [
        {
          "indexed": true,
          "internalType": "address",
          "name": "player",
          "type": "address"
        },
        {
          "indexed": false,
          "internalType": "int256",
          "name": "newElo",
          "type": "int256"
        }
      ],
      "name": "EloUpdated",
      "type": "event"
    },
    {
      "anonymous": false,
      "inputs": [
        {
          "indexed": true,
          "internalType": "uint256",
          "name": "matchId",
          "type": "uint256"
        },
        {
          "indexed": true,
          "internalType": "address",
          "name": "player1",
          "type": "address"
        },
        {
          "indexed": false,
          "internalType": "uint256",
          "name": "betAmount",
          "type": "uint256"
        }
      ],
      "name": "MatchCreated",
      "type": "event"
    },
    {
      "anonymous": false,
      "inputs": [
        {
          "indexed": true,
          "internalType": "uint256",
          "name": "matchId",
          "type": "uint256"
        },
        {
          "indexed": false,
          "internalType": "address",
          "name": "winner",
          "type": "address"
        },
        {
          "indexed": false,
          "internalType": "bool",
          "name": "isDraw",
          "type": "bool"
        },
        {
          "indexed": false,
          "internalType": "uint256",
          "name": "payout",
          "type": "uint256"
        }
      ],
      "name": "MatchFinished",
      "type": "event"
    },
    {
      "anonymous": false,
      "inputs": [
        {
          "indexed": true,
          "internalType": "uint256",
          "name": "matchId",
          "type": "uint256"
        },
        {
          "indexed": true,
          "internalType": "address",
          "name": "player2",
          "type": "address"
        }
      ],
      "name": "MatchJoined",
      "type": "event"
    },
    {
      "anonymous": false,
      "inputs": [
        {
          "indexed": true,
          "internalType": "uint256",
          "name": "matchId",
          "type": "uint256"
        },
        {
          "indexed": true,
          "internalType": "address",
          "name": "currentTurn",
          "type": "address"
        }
      ],
      "name": "MatchStarted",
      "type": "event"
    },
    {
      "anonymous": false,
      "inputs": [
        {
          "indexed": true,
          "internalType": "uint256",
          "name": "matchId",
          "type": "uint256"
        },
        {
          "indexed": true,
          "internalType": "address",
          "name": "player",
          "type": "address"
        },
        {
          "indexed": false,
          "internalType": "uint8",
          "name": "position",
          "type": "uint8"
        },
        {
          "indexed": false,
          "internalType": "uint8",
          "name": "mark",
          "type": "uint8"
        }
      ],
      "name": "MovePlayed",
      "type": "event"
    },
    {
      "inputs": [],
      "name": "BOARD_SIZE",
      "outputs": [
        {
          "internalType": "uint256",
          "name": "",
          "type": "uint256"
        }
      ],
      "stateMutability": "view",
      "type": "function"
    },
    {
      "inputs": [],
      "name": "DEFAULT_ELO",
      "outputs": [
        {
          "internalType": "int256",
          "name": "",
          "type": "int256"
        }
      ],
      "stateMutability": "view",
      "type": "function"
    },
    {
      "inputs": [],
      "name": "ELO_DELTA",
      "outputs": [
        {
          "internalType": "int256",
          "name": "",
          "type": "int256"
        }
      ],
      "stateMutability": "view",
      "type": "function"
    },
    {
      "inputs": [],
      "name": "createMatch",
      "outputs": [
        {
          "internalType": "uint256",
          "name": "matchId",
          "type": "uint256"
        }
      ],
      "stateMutability": "payable",
      "type": "function"
    },
    {
      "inputs": [
        {
          "internalType": "uint256",
          "name": "matchId",
          "type": "uint256"
        }
      ],
      "name": "getMatch",
      "outputs": [
        {
          "components": [
            {
              "internalType": "address",
              "name": "player1",
              "type": "address"
            },
            {
              "internalType": "address",
              "name": "player2",
              "type": "address"
            },
            {
              "internalType": "uint256",
              "name": "betAmount",
              "type": "uint256"
            },
            {
              "internalType": "enum GameEscrow.MatchState",
              "name": "state",
              "type": "uint8"
            },
            {
              "internalType": "address",
              "name": "winner",
              "type": "address"
            },
            {
              "internalType": "address",
              "name": "currentTurn",
              "type": "address"
            },
            {
              "internalType": "uint8",
              "name": "moves",
              "type": "uint8"
            },
            {
              "internalType": "uint8[9]",
              "name": "board",
              "type": "uint8[9]"
            }
          ],
          "internalType": "struct GameEscrow.Match",
          "name": "",
          "type": "tuple"
        }
      ],
      "stateMutability": "view",
      "type": "function"
    },
    {
      "inputs": [],
      "name": "getMatches",
      "outputs": [
        {
          "components": [
            {
              "internalType": "address",
              "name": "player1",
              "type": "address"
            },
            {
              "internalType": "address",
              "name": "player2",
              "type": "address"
            },
            {
              "internalType": "uint256",
              "name": "betAmount",
              "type": "uint256"
            },
            {
              "internalType": "enum GameEscrow.MatchState",
              "name": "state",
              "type": "uint8"
            },
            {
              "internalType": "address",
              "name": "winner",
              "type": "address"
            },
            {
              "internalType": "address",
              "name": "currentTurn",
              "type": "address"
            },
            {
              "internalType": "uint8",
              "name": "moves",
              "type": "uint8"
            },
            {
              "internalType": "uint8[9]",
              "name": "board",
              "type": "uint8[9]"
            }
          ],
          "internalType": "struct GameEscrow.Match[]",
          "name": "",
          "type": "tuple[]"
        }
      ],
      "stateMutability": "view",
      "type": "function"
    },
    {
      "inputs": [
        {
          "internalType": "address",
          "name": "player",
          "type": "address"
        }
      ],
      "name": "getPlayerElo",
      "outputs": [
        {
          "internalType": "int256",
          "name": "",
          "type": "int256"
        }
      ],
      "stateMutability": "view",
      "type": "function"
    },
    {
      "inputs": [
        {
          "internalType": "address",
          "name": "player",
          "type": "address"
        }
      ],
      "name": "getPlayerHistory",
      "outputs": [
        {
          "components": [
            {
              "internalType": "address",
              "name": "player1",
              "type": "address"
            },
            {
              "internalType": "address",
              "name": "player2",
              "type": "address"
            },
            {
              "internalType": "uint256",
              "name": "betAmount",
              "type": "uint256"
            },
            {
              "internalType": "enum GameEscrow.MatchState",
              "name": "state",
              "type": "uint8"
            },
            {
              "internalType": "address",
              "name": "winner",
              "type": "address"
            },
            {
              "internalType": "address",
              "name": "currentTurn",
              "type": "address"
            },
            {
              "internalType": "uint8",
              "name": "moves",
              "type": "uint8"
            },
            {
              "internalType": "uint8[9]",
              "name": "board",
              "type": "uint8[9]"
            }
          ],
          "internalType": "struct GameEscrow.Match[]",
          "name": "playerMatches",
          "type": "tuple[]"
        },
        {
          "internalType": "uint256[]",
          "name": "matchIds",
          "type": "uint256[]"
        }
      ],
      "stateMutability": "view",
      "type": "function"
    },
    {
      "inputs": [
        {
          "internalType": "address",
          "name": "player",
          "type": "address"
        }
      ],
      "name": "getPlayerMatchIds",
      "outputs": [
        {
          "internalType": "uint256[]",
          "name": "",
          "type": "uint256[]"
        }
      ],
      "stateMutability": "view",
      "type": "function"
    },
    {
      "inputs": [
        {
          "internalType": "uint256",
          "name": "matchId",
          "type": "uint256"
        }
      ],
      "name": "joinMatch",
      "outputs": [],
      "stateMutability": "payable",
      "type": "function"
    },
    {
      "inputs": [
        {
          "internalType": "uint256",
          "name": "matchId",
          "type": "uint256"
        },
        {
          "internalType": "uint8",
          "name": "position",
          "type": "uint8"
        }
      ],
      "name": "makeMove",
      "outputs": [],
      "stateMutability": "nonpayable",
      "type": "function"
    },
    {
      "inputs": [],
      "name": "matchCount",
      "outputs": [
        {
          "internalType": "uint256",
          "name": "",
          "type": "uint256"
        }
      ],
      "stateMutability": "view",
      "type": "function"
    },
    {
      "inputs": [
        {
          "internalType": "uint256",
          "name": "",
          "type": "uint256"
        }
      ],
      "name": "matches",
      "outputs": [
        {
          "internalType": "address",
          "name": "player1",
          "type": "address"
        },
        {
          "internalType": "address",
          "name": "player2",
          "type": "address"
        },
        {
          "internalType": "uint256",
          "name": "betAmount",
          "type": "uint256"
        },
        {
          "internalType": "enum GameEscrow.MatchState",
          "name": "state",
          "type": "uint8"
        },
        {
          "internalType": "address",
          "name": "winner",
          "type": "address"
        },
        {
          "internalType": "address",
          "name": "currentTurn",
          "type": "address"
        },
        {
          "internalType": "uint8",
          "name": "moves",
          "type": "uint8"
        }
      ],
      "stateMutability": "view",
      "type": "function"
    }
  ],
  "bytecode": "0x6080604052348015600f57600080fd5b50612f278061001f6000396000f3fe6080604052600436106100c25760003560e01c806379c4264b1161007f578063a0cc641a11610059578063a0cc641a14610297578063dc4a3e95146102b5578063f8eea2bf146102e0578063feb8c4381461031d576100c2565b806379c4264b146102055780637fd6f7c4146102305780638249a69c14610259576100c2565b8063097f4a0e146100c75780632c70120e146100f25780633d092b3d1461011d5780634768d4ef1461015a5780635831e9f51461019d57806370fcab2e146101c8575b600080fd5b3480156100d357600080fd5b506100dc610339565b6040516100e99190612519565b60405180910390f35b3480156100fe57600080fd5b5061010761033e565b604051610114919061280f565b60405180910390f35b34801561012957600080fd5b50610144600480360381019061013f9190612862565b61061d565b6040516101519190612931565b60405180910390f35b34801561016657600080fd5b50610181600480360381019061017c9190612862565b6108e0565b6040516101949796959493929190612989565b60405180910390f35b3480156101a957600080fd5b506101b26109bc565b6040516101bf9190612519565b60405180910390f35b3480156101d457600080fd5b506101ef60048036038101906101ea9190612a24565b6109c2565b6040516101fc9190612519565b60405180910390f35b34801561021157600080fd5b5061021a610a58565b6040516102279190612a51565b60405180910390f35b34801561023c57600080fd5b5061025760048036038101906102529190612a98565b610a5e565b005b34801561026557600080fd5b50610280600480360381019061027b9190612a24565b610ff0565b60405161028e929190612b87565b60405180910390f35b61029f6113a5565b6040516102ac9190612a51565b60405180910390f35b3480156102c157600080fd5b506102ca611681565b6040516102d79190612a51565b60405180910390f35b3480156102ec57600080fd5b5061030760048036038101906103029190612a24565b611686565b6040516103149190612bbe565b60405180910390f35b61033760048036038101906103329190612862565b61171d565b005b601981565b60606000805467ffffffffffffffff81111561035d5761035c612be0565b5b60405190808252806020026020018201604052801561039657816020015b610383612425565b81526020019060019003908161037b5790505b50905060005b6000548110156106155760016000828152602001908152602001600020604051806101000160405290816000820160009054906101000a900473ffffffffffffffffffffffffffffffffffffffff1673ffffffffffffffffffffffffffffffffffffffff1673ffffffffffffffffffffffffffffffffffffffff1681526020016001820160009054906101000a900473ffffffffffffffffffffffffffffffffffffffff1673ffffffffffffffffffffffffffffffffffffffff1673ffffffffffffffffffffffffffffffffffffffff168152602001600282015481526020016003820160009054906101000a900460ff1660028111156104a05761049f6125ba565b5b60028111156104b2576104b16125ba565b5b81526020016003820160019054906101000a900473ffffffffffffffffffffffffffffffffffffffff1673ffffffffffffffffffffffffffffffffffffffff1673ffffffffffffffffffffffffffffffffffffffff1681526020016004820160009054906101000a900473ffffffffffffffffffffffffffffffffffffffff1673ffffffffffffffffffffffffffffffffffffffff1673ffffffffffffffffffffffffffffffffffffffff1681526020016004820160149054906101000a900460ff1660ff1660ff168152602001600582016009806020026040519081016040528092919082600980156105e1576020028201916000905b82829054906101000a900460ff1660ff16815260200190600101906020826000010492830192600103820291508084116105aa5790505b5050505050815250508282815181106105fd576105fc612c0f565b5b6020026020010181905250808060010191505061039c565b508091505090565b610625612425565b600060016000848152602001908152602001600020604051806101000160405290816000820160009054906101000a900473ffffffffffffffffffffffffffffffffffffffff1673ffffffffffffffffffffffffffffffffffffffff1673ffffffffffffffffffffffffffffffffffffffff1681526020016001820160009054906101000a900473ffffffffffffffffffffffffffffffffffffffff1673ffffffffffffffffffffffffffffffffffffffff1673ffffffffffffffffffffffffffffffffffffffff168152602001600282015481526020016003820160009054906101000a900460ff166002811115610721576107206125ba565b5b6002811115610733576107326125ba565b5b81526020016003820160019054906101000a900473ffffffffffffffffffffffffffffffffffffffff1673ffffffffffffffffffffffffffffffffffffffff1673ffffffffffffffffffffffffffffffffffffffff1681526020016004820160009054906101000a900473ffffffffffffffffffffffffffffffffffffffff1673ffffffffffffffffffffffffffffffffffffffff1673ffffffffffffffffffffffffffffffffffffffff1681526020016004820160149054906101000a900460ff1660ff1660ff16815260200160058201600980602002604051908101604052809291908260098015610862576020028201916000905b82829054906101000a900460ff1660ff168152602001906001019060208260000104928301926001038202915080841161082b5790505b5050505050815250509050600073ffffffffffffffffffffffffffffffffffffffff16816000015173ffffffffffffffffffffffffffffffffffffffff16036108d7576040517fb19089b800000000000000000000000000000000000000000000000000000000815260040160405180910390fd5b80915050919050565b60016020528060005260406000206000915090508060000160009054906101000a900473ffffffffffffffffffffffffffffffffffffffff16908060010160009054906101000a900473ffffffffffffffffffffffffffffffffffffffff16908060020154908060030160009054906101000a900460ff16908060030160019054906101000a900473ffffffffffffffffffffffffffffffffffffffff16908060040160009054906101000a900473ffffffffffffffffffffffffffffffffffffffff16908060040160149054906101000a900460ff16905087565b6103e881565b600080600360008473ffffffffffffffffffffffffffffffffffffffff1673ffffffffffffffffffffffffffffffffffffffff168152602001908152602001600020604051806040016040529081600082015481526020016001820160009054906101000a900460ff16151515158152505090508060200151610a4a576103e8915050610a53565b80600001519150505b919050565b60005481565b6000600160008481526020019081526020016000209050600073ffffffffffffffffffffffffffffffffffffffff168160000160009054906101000a900473ffffffffffffffffffffffffffffffffffffffff1673ffffffffffffffffffffffffffffffffffffffff1603610aff576040517fb19089b800000000000000000000000000000000000000000000000000000000815260040160405180910390fd5b60016002811115610b1357610b126125ba565b5b8160030160009054906101000a900460ff166002811115610b3757610b366125ba565b5b14610b6e576040517fca758aec00000000000000000000000000000000000000000000000000000000815260040160405180910390fd5b8060000160009054906101000a900473ffffffffffffffffffffffffffffffffffffffff1673ffffffffffffffffffffffffffffffffffffffff163373ffffffffffffffffffffffffffffffffffffffff1614158015610c1e57508060010160009054906101000a900473ffffffffffffffffffffffffffffffffffffffff1673ffffffffffffffffffffffffffffffffffffffff163373ffffffffffffffffffffffffffffffffffffffff1614155b15610c55576040517fe438f8ce00000000000000000000000000000000000000000000000000000000815260040160405180910390fd5b8060040160009054906101000a900473ffffffffffffffffffffffffffffffffffffffff1673ffffffffffffffffffffffffffffffffffffffff163373ffffffffffffffffffffffffffffffffffffffff1614610cde576040517f2679264e00000000000000000000000000000000000000000000000000000000815260040160405180910390fd5b60098260ff1610610d1b576040517f87822d3400000000000000000000000000000000000000000000000000000000815260040160405180910390fd5b6000816005018360ff1660098110610d3657610d35612c0f565b5b602091828204019190069054906101000a900460ff1660ff1614610d86576040517f87822d3400000000000000000000000000000000000000000000000000000000815260040160405180910390fd5b60008160000160009054906101000a900473ffffffffffffffffffffffffffffffffffffffff1673ffffffffffffffffffffffffffffffffffffffff163373ffffffffffffffffffffffffffffffffffffffff1614610de6576002610de9565b60015b905080826005018460ff1660098110610e0557610e04612c0f565b5b602091828204019190066101000a81548160ff021916908360ff16021790555060018260040160148282829054906101000a900460ff16610e469190612c6d565b92506101000a81548160ff021916908360ff1602179055503373ffffffffffffffffffffffffffffffffffffffff16847f59be239aa4d17ffdecefb90e241828a2f95e7ce03fd49ba30c693bdf621da7068584604051610ea7929190612ca2565b60405180910390a3610ebc8260050182611ae0565b15610ed357610ecc828533611ddf565b5050610fec565b60098260040160149054906101000a900460ff1660ff1603610f0057610ef98285611f48565b5050610fec565b8160000160009054906101000a900473ffffffffffffffffffffffffffffffffffffffff1673ffffffffffffffffffffffffffffffffffffffff163373ffffffffffffffffffffffffffffffffffffffff1614610f81578160000160009054906101000a900473ffffffffffffffffffffffffffffffffffffffff16610fa7565b8160010160009054906101000a900473ffffffffffffffffffffffffffffffffffffffff165b8260040160006101000a81548173ffffffffffffffffffffffffffffffffffffffff021916908373ffffffffffffffffffffffffffffffffffffffff16021790555050505b5050565b6060806000600260008573ffffffffffffffffffffffffffffffffffffffff1673ffffffffffffffffffffffffffffffffffffffff16815260200190815260200160002090506000818054905090508067ffffffffffffffff81111561105957611058612be0565b5b6040519080825280602002602001820160405280156110875781602001602082028036833780820191505090505b5092508067ffffffffffffffff8111156110a4576110a3612be0565b5b6040519080825280602002602001820160405280156110dd57816020015b6110ca612425565b8152602001906001900390816110c25790505b50935060005b8181101561139d576000838281548110611100576110ff612c0f565b5b906000526020600020015490508085838151811061112157611120612c0f565b5b60200260200101818152505060016000828152602001908152602001600020604051806101000160405290816000820160009054906101000a900473ffffffffffffffffffffffffffffffffffffffff1673ffffffffffffffffffffffffffffffffffffffff1673ffffffffffffffffffffffffffffffffffffffff1681526020016001820160009054906101000a900473ffffffffffffffffffffffffffffffffffffffff1673ffffffffffffffffffffffffffffffffffffffff1673ffffffffffffffffffffffffffffffffffffffff168152602001600282015481526020016003820160009054906101000a900460ff166002811115611227576112266125ba565b5b6002811115611239576112386125ba565b5b81526020016003820160019054906101000a900473ffffffffffffffffffffffffffffffffffffffff1673ffffffffffffffffffffffffffffffffffffffff1673ffffffffffffffffffffffffffffffffffffffff1681526020016004820160009054906101000a900473ffffffffffffffffffffffffffffffffffffffff1673ffffffffffffffffffffffffffffffffffffffff1673ffffffffffffffffffffffffffffffffffffffff1681526020016004820160149054906101000a900460ff1660ff1660ff16815260200160058201600980602002604051908101604052809291908260098015611368576020028201916000905b82829054906101000a900460ff1660ff16815260200190600101906020826000010492830192600103820291508084116113315790505b50505050508152505086838151811061138457611383612c0f565b5b60200260200101819052505080806001019150506110e3565b505050915091565b60008034036113e0576040517faa82224900000000000000000000000000000000000000000000000000000000815260040160405180910390fd5b60005490506000600160008381526020019081526020016000209050338160000160006101000a81548173ffffffffffffffffffffffffffffffffffffffff021916908373ffffffffffffffffffffffffffffffffffffffff16021790555060008160010160006101000a81548173ffffffffffffffffffffffffffffffffffffffff021916908373ffffffffffffffffffffffffffffffffffffffff16021790555034816002018190555060008160030160006101000a81548160ff021916908360028111156114b4576114b36125ba565b5b021790555060008160030160016101000a81548173ffffffffffffffffffffffffffffffffffffffff021916908373ffffffffffffffffffffffffffffffffffffffff16021790555060008160040160006101000a81548173ffffffffffffffffffffffffffffffffffffffff021916908373ffffffffffffffffffffffffffffffffffffffff16021790555060008160040160146101000a81548160ff021916908360ff16021790555060005b60098110156115b057600082600501826009811061158357611582612c0f565b5b602091828204019190066101000a81548160ff021916908360ff1602179055508080600101915050611562565b506000808154809291906115c390612ccb565b9190505550600260003373ffffffffffffffffffffffffffffffffffffffff1673ffffffffffffffffffffffffffffffffffffffff1681526020019081526020016000208290806001815401808255809150506001900390600052602060002001600090919091909150553373ffffffffffffffffffffffffffffffffffffffff16827fd54e72c7c537da5aba0c3d338b5fcbe4ee8d6e4dce121c81c8c57aa13e5c6d64346040516116759190612a51565b60405180910390a35090565b600981565b6060600260008373ffffffffffffffffffffffffffffffffffffffff1673ffffffffffffffffffffffffffffffffffffffff16815260200190815260200160002080548060200260200160405190810160405280929190818152602001828054801561171157602002820191906000526020600020905b8154815260200190600101908083116116fd575b50505050509050919050565b6000600160008381526020019081526020016000209050600073ffffffffffffffffffffffffffffffffffffffff168160000160009054906101000a900473ffffffffffffffffffffffffffffffffffffffff1673ffffffffffffffffffffffffffffffffffffffff16036117be576040517fb19089b800000000000000000000000000000000000000000000000000000000815260040160405180910390fd5b600060028111156117d2576117d16125ba565b5b8160030160009054906101000a900460ff1660028111156117f6576117f56125ba565b5b1461182d576040517fdbe1416f00000000000000000000000000000000000000000000000000000000815260040160405180910390fd5b8060000160009054906101000a900473ffffffffffffffffffffffffffffffffffffffff1673ffffffffffffffffffffffffffffffffffffffff163373ffffffffffffffffffffffffffffffffffffffff16036118b6576040517f24c5925c00000000000000000000000000000000000000000000000000000000815260040160405180910390fd5b806002015434146118f3576040517f6d14158600000000000000000000000000000000000000000000000000000000815260040160405180910390fd5b338160010160006101000a81548173ffffffffffffffffffffffffffffffffffffffff021916908373ffffffffffffffffffffffffffffffffffffffff16021790555060018160030160006101000a81548160ff0219169083600281111561195e5761195d6125ba565b5b02179055508060000160009054906101000a900473ffffffffffffffffffffffffffffffffffffffff168160040160006101000a81548173ffffffffffffffffffffffffffffffffffffffff021916908373ffffffffffffffffffffffffffffffffffffffff160217905550600260003373ffffffffffffffffffffffffffffffffffffffff1673ffffffffffffffffffffffffffffffffffffffff1681526020019081526020016000208290806001815401808255809150506001900390600052602060002001600090919091909150553373ffffffffffffffffffffffffffffffffffffffff16827f50d6e5d288766a7340b6110b6738cac822c48c128a47399df2fad303041f8d5060405160405180910390a38060040160009054906101000a900473ffffffffffffffffffffffffffffffffffffffff1673ffffffffffffffffffffffffffffffffffffffff16827f4943fa406bde9b8119097e2f5f691a7efdf64d7781d8fe451853e0dd995b049060405160405180910390a35050565b6000806040518061010001604052806040518060600160405280600060ff1660ff168152602001600160ff1660ff168152602001600260ff1660ff1681525081526020016040518060600160405280600360ff1660ff168152602001600460ff1660ff168152602001600560ff1660ff1681525081526020016040518060600160405280600660ff1660ff168152602001600760ff1660ff168152602001600860ff1660ff1681525081526020016040518060600160405280600060ff1660ff168152602001600360ff1660ff168152602001600660ff1660ff1681525081526020016040518060600160405280600160ff1660ff168152602001600460ff1660ff168152602001600760ff1660ff1681525081526020016040518060600160405280600260ff1660ff168152602001600560ff1660ff168152602001600860ff1660ff1681525081526020016040518060600160405280600060ff1660ff168152602001600460ff1660ff168152602001600860ff1660ff1681525081526020016040518060600160405280600260ff1660ff168152602001600460ff1660ff168152602001600660ff1660ff16815250815250905060005b6008811015611dd2576000828260088110611cb857611cb7612c0f565b5b602002015190508460ff168682600060038110611cd857611cd7612c0f565b5b602002015160ff1660098110611cf157611cf0612c0f565b5b602091828204019190069054906101000a900460ff1660ff16148015611d5f57508460ff168682600160038110611d2b57611d2a612c0f565b5b602002015160ff1660098110611d4457611d43612c0f565b5b602091828204019190069054906101000a900460ff1660ff16145b8015611db357508460ff168682600260038110611d7f57611d7e612c0f565b5b602002015160ff1660098110611d9857611d97612c0f565b5b602091828204019190069054906101000a900460ff1660ff16145b15611dc45760019350505050611dd9565b508080600101915050611c9a565b5060009150505b92915050565b60028360030160006101000a81548160ff02191690836002811115611e0757611e066125ba565b5b0217905550808360030160016101000a81548173ffffffffffffffffffffffffffffffffffffffff021916908373ffffffffffffffffffffffffffffffffffffffff16021790555060008360040160006101000a81548173ffffffffffffffffffffffffffffffffffffffff021916908373ffffffffffffffffffffffffffffffffffffffff160217905550600060028460020154611ea69190612d13565b9050611efb8460000160009054906101000a900473ffffffffffffffffffffffffffffffffffffffff168560010160009054906101000a900473ffffffffffffffffffffffffffffffffffffffff168461210d565b611f0582826122ed565b827f5b8aed93cf7c51c0ed0b01abc7a48da55ce2030ea6eb6748421a6ec5557869c283600084604051611f3a93929190612d70565b60405180910390a250505050565b60028260030160006101000a81548160ff02191690836002811115611f7057611f6f6125ba565b5b021790555060008260030160016101000a81548173ffffffffffffffffffffffffffffffffffffffff021916908373ffffffffffffffffffffffffffffffffffffffff16021790555060008260040160006101000a81548173ffffffffffffffffffffffffffffffffffffffff021916908373ffffffffffffffffffffffffffffffffffffffff1602179055506000826002015490506120338360000160009054906101000a900473ffffffffffffffffffffffffffffffffffffffff1661239e565b506120618360010160009054906101000a900473ffffffffffffffffffffffffffffffffffffffff1661239e565b506120908360000160009054906101000a900473ffffffffffffffffffffffffffffffffffffffff16826122ed565b6120be8360010160009054906101000a900473ffffffffffffffffffffffffffffffffffffffff16826122ed565b817f5b8aed93cf7c51c0ed0b01abc7a48da55ce2030ea6eb6748421a6ec5557869c2600060016002856120f19190612d13565b60405161210093929190612d70565b60405180910390a2505050565b600073ffffffffffffffffffffffffffffffffffffffff168373ffffffffffffffffffffffffffffffffffffffff1614806121745750600073ffffffffffffffffffffffffffffffffffffffff168273ffffffffffffffffffffffffffffffffffffffff16145b806121ab5750600073ffffffffffffffffffffffffffffffffffffffff168173ffffffffffffffffffffffffffffffffffffffff16145b6122e85760008373ffffffffffffffffffffffffffffffffffffffff168273ffffffffffffffffffffffffffffffffffffffff16146121ea57836121ec565b825b905060006121f98361239e565b905060006122068361239e565b9050601982600001600082825461221d9190612da7565b9250508190555060198160000160008282546122399190612deb565b925050819055508373ffffffffffffffffffffffffffffffffffffffff167f72ce2de44265d5998af8e88815e9568069691bba969018940c0728f4f7f45545836000015460405161228a9190612519565b60405180910390a28273ffffffffffffffffffffffffffffffffffffffff167f72ce2de44265d5998af8e88815e9568069691bba969018940c0728f4f7f4554582600001546040516122dc9190612519565b60405180910390a25050505b505050565b60008273ffffffffffffffffffffffffffffffffffffffff168260405161231390612e5f565b60006040518083038185875af1925050503d8060008114612350576040519150601f19603f3d011682016040523d82523d6000602084013e612355565b606091505b5050905080612399576040517f08c379a000000000000000000000000000000000000000000000000000000000815260040161239090612ed1565b60405180910390fd5b505050565b6000600360008373ffffffffffffffffffffffffffffffffffffffff1673ffffffffffffffffffffffffffffffffffffffff16815260200190815260200160002090508060010160009054906101000a900460ff16612420576103e8816000018190555060018160010160006101000a81548160ff0219169083151502179055505b919050565b604051806101000160405280600073ffffffffffffffffffffffffffffffffffffffff168152602001600073ffffffffffffffffffffffffffffffffffffffff1681526020016000815260200160006002811115612486576124856125ba565b5b8152602001600073ffffffffffffffffffffffffffffffffffffffff168152602001600073ffffffffffffffffffffffffffffffffffffffff168152602001600060ff1681526020016124d76124dd565b81525090565b604051806101200160405280600990602082028036833780820191505090505090565b6000819050919050565b61251381612500565b82525050565b600060208201905061252e600083018461250a565b92915050565b600081519050919050565b600082825260208201905092915050565b6000819050602082019050919050565b600073ffffffffffffffffffffffffffffffffffffffff82169050919050565b600061258b82612560565b9050919050565b61259b81612580565b82525050565b6000819050919050565b6125b4816125a1565b82525050565b7f4e487b7100000000000000000000000000000000000000000000000000000000600052602160045260246000fd5b600381106125fa576125f96125ba565b5b50565b600081905061260b826125e9565b919050565b600061261b826125fd565b9050919050565b61262b81612610565b82525050565b600060ff82169050919050565b61264781612631565b82525050565b600060099050919050565b600081905092915050565b6000819050919050565b6000612679838361263e565b60208301905092915050565b6000602082019050919050565b61269b8161264d565b6126a58184612658565b92506126b082612663565b8060005b838110156126e15781516126c8878261266d565b96506126d383612685565b9250506001810190506126b4565b505050505050565b610200820160008201516127006000850182612592565b5060208201516127136020850182612592565b50604082015161272660408501826125ab565b5060608201516127396060850182612622565b50608082015161274c6080850182612592565b5060a082015161275f60a0850182612592565b5060c082015161277260c085018261263e565b5060e082015161278560e0850182612692565b50505050565b600061279783836126e9565b6102008301905092915050565b6000602082019050919050565b60006127bc82612534565b6127c6818561253f565b93506127d183612550565b8060005b838110156128025781516127e9888261278b565b97506127f4836127a4565b9250506001810190506127d5565b5085935050505092915050565b6000602082019050818103600083015261282981846127b1565b905092915050565b600080fd5b61283f816125a1565b811461284a57600080fd5b50565b60008135905061285c81612836565b92915050565b60006020828403121561287857612877612831565b5b60006128868482850161284d565b91505092915050565b610200820160008201516128a66000850182612592565b5060208201516128b96020850182612592565b5060408201516128cc60408501826125ab565b5060608201516128df6060850182612622565b5060808201516128f26080850182612592565b5060a082015161290560a0850182612592565b5060c082015161291860c085018261263e565b5060e082015161292b60e0850182612692565b50505050565b600061020082019050612947600083018461288f565b92915050565b61295681612580565b82525050565b612965816125a1565b82525050565b61297481612610565b82525050565b61298381612631565b82525050565b600060e08201905061299e600083018a61294d565b6129ab602083018961294d565b6129b8604083018861295c565b6129c5606083018761296b565b6129d2608083018661294d565b6129df60a083018561294d565b6129ec60c083018461297a565b98975050505050505050565b612a0181612580565b8114612a0c57600080fd5b50565b600081359050612a1e816129f8565b92915050565b600060208284031215612a3a57612a39612831565b5b6000612a4884828501612a0f565b91505092915050565b6000602082019050612a66600083018461295c565b92915050565b612a7581612631565b8114612a8057600080fd5b50565b600081359050612a9281612a6c565b92915050565b60008060408385031215612aaf57612aae612831565b5b6000612abd8582860161284d565b9250506020612ace85828601612a83565b9150509250929050565b600081519050919050565b600082825260208201905092915050565b6000819050602082019050919050565b6000612b1083836125ab565b60208301905092915050565b6000602082019050919050565b6000612b3482612ad8565b612b3e8185612ae3565b9350612b4983612af4565b8060005b83811015612b7a578151612b618882612b04565b9750612b6c83612b1c565b925050600181019050612b4d565b5085935050505092915050565b60006040820190508181036000830152612ba181856127b1565b90508181036020830152612bb58184612b29565b90509392505050565b60006020820190508181036000830152612bd88184612b29565b905092915050565b7f4e487b7100000000000000000000000000000000000000000000000000000000600052604160045260246000fd5b7f4e487b7100000000000000000000000000000000000000000000000000000000600052603260045260246000fd5b7f4e487b7100000000000000000000000000000000000000000000000000000000600052601160045260246000fd5b6000612c7882612631565b9150612c8383612631565b9250828201905060ff811115612c9c57612c9b612c3e565b5b92915050565b6000604082019050612cb7600083018561297a565b612cc4602083018461297a565b9392505050565b6000612cd6826125a1565b91507fffffffffffffffffffffffffffffffffffffffffffffffffffffffffffffffff8203612d0857612d07612c3e565b5b600182019050919050565b6000612d1e826125a1565b9150612d29836125a1565b9250828202612d37816125a1565b91508282048414831517612d4e57612d4d612c3e565b5b5092915050565b60008115159050919050565b612d6a81612d55565b82525050565b6000606082019050612d85600083018661294d565b612d926020830185612d61565b612d9f604083018461295c565b949350505050565b6000612db282612500565b9150612dbd83612500565b925082820190508281121560008312168382126000841215161715612de557612de4612c3e565b5b92915050565b6000612df682612500565b9150612e0183612500565b9250828203905081811260008412168282136000851215161715612e2857612e27612c3e565b5b92915050565b600081905092915050565b50565b6000612e49600083612e2e565b9150612e5482612e39565b600082019050919050565b6000612e6a82612e3c565b9150819050919050565b600082825260208201905092915050565b7f5472616e73666572206661696c65640000000000000000000000000000000000600082015250565b6000612ebb600f83612e74565b9150612ec682612e85565b602082019050919050565b60006020820190508181036000830152612eea81612eae565b905091905056fea264697066735822122044e7616ea374dd7c179e08d39611fe88a25c5dabf5f6759fa5f3940e0102642664736f6c634300081c0033",
  "linkReferences": {},
  "deployedLinkReferences": {}
}